{
	"data": {
		"bytecode": {
			"linkReferences": {},
			"object": "608060405234801561001057600080fd5b506109c4806100206000396000f3fe608060405234801561001057600080fd5b50600436106100b45760003560e01c806372425d9d1161007157806372425d9d1461013a57806386d516e814610140578063a8b0574e14610146578063bce38bd714610154578063c3077fa914610174578063ee82ac5e1461018757600080fd5b80630f28c97d146100b9578063252dba42146100ce57806327e86d6e146100ef578063399542e9146100f757806342cbb15c146101195780634d2301cc1461011f575b600080fd5b425b6040519081526020015b60405180910390f35b6100e16100dc3660046106ea565b610199565b6040516100c5929190610777565b6100bb610321565b61010a6101053660046107e1565b610334565b6040516100c59392919061089e565b436100bb565b6100bb61012d3660046108c6565b6001600160a01b03163190565b446100bb565b456100bb565b6040514181526020016100c5565b6101676101623660046107e1565b61034c565b6040516100c591906108e8565b61010a6101823660046106ea565b610506565b6100bb6101953660046108fb565b4090565b8051439060609067ffffffffffffffff8111156101b8576101b8610523565b6040519080825280602002602001820160405280156101eb57816020015b60608152602001906001900390816101d65790505b50905060005b835181101561031b5760008085838151811061020f5761020f610914565b6020026020010151600001516001600160a01b031686848151811061023657610236610914565b60200260200101516020015160405161024f919061092a565b6000604051808303816000865af19150503d806000811461028c576040519150601f19603f3d011682016040523d82523d6000602084013e610291565b606091505b5091509150816102e85760405162461bcd60e51b815260206004820181905260248201527f4d756c746963616c6c206167677265676174653a2063616c6c206661696c656460448201526064015b60405180910390fd5b808484815181106102fb576102fb610914565b6020026020010181905250505080806103139061095c565b9150506101f1565b50915091565b600061032e600143610975565b40905090565b4380406060610343858561034c565b90509250925092565b6060815167ffffffffffffffff81111561036857610368610523565b6040519080825280602002602001820160405280156103ae57816020015b6040805180820190915260008152606060208201528152602001906001900390816103865790505b50905060005b82518110156104ff576000808483815181106103d2576103d2610914565b6020026020010151600001516001600160a01b03168584815181106103f9576103f9610914565b602002602001015160200151604051610412919061092a565b6000604051808303816000865af19150503d806000811461044f576040519150601f19603f3d011682016040523d82523d6000602084013e610454565b606091505b509150915085156104b657816104b65760405162461bcd60e51b815260206004820152602160248201527f4d756c746963616c6c32206167677265676174653a2063616c6c206661696c656044820152601960fa1b60648201526084016102df565b60405180604001604052808315158152602001828152508484815181106104df576104df610914565b6020026020010181905250505080806104f79061095c565b9150506103b4565b5092915050565b6000806060610516600185610334565b9196909550909350915050565b634e487b7160e01b600052604160045260246000fd5b6040805190810167ffffffffffffffff8111828210171561055c5761055c610523565b60405290565b604051601f8201601f1916810167ffffffffffffffff8111828210171561058b5761058b610523565b604052919050565b80356001600160a01b03811681146105aa57600080fd5b919050565b6000601f83818401126105c157600080fd5b8235602067ffffffffffffffff808311156105de576105de610523565b8260051b6105ed838201610562565b938452868101830193838101908986111561060757600080fd5b84890192505b858310156106dd578235848111156106255760008081fd5b89016040601f19828d03810182131561063e5760008081fd5b610646610539565b610651898501610593565b815282840135888111156106655760008081fd5b8085019450508d603f85011261067b5760008081fd5b888401358881111561068f5761068f610523565b61069e8a848e84011601610562565b92508083528e848287010111156106b55760008081fd5b808486018b85013760009083018a01528089019190915284525050918401919084019061060d565b9998505050505050505050565b6000602082840312156106fc57600080fd5b813567ffffffffffffffff81111561071357600080fd5b61071f848285016105af565b949350505050565b60005b8381101561074257818101518382015260200161072a565b50506000910152565b60008151808452610763816020860160208601610727565b601f01601f19169290920160200192915050565b600060408201848352602060408185015281855180845260608601915060608160051b870101935082870160005b828110156107d357605f198887030184526107c186835161074b565b955092840192908401906001016107a5565b509398975050505050505050565b600080604083850312156107f457600080fd5b8235801515811461080457600080fd5b9150602083013567ffffffffffffffff81111561082057600080fd5b61082c858286016105af565b9150509250929050565b6000815180845260208085019450848260051b860182860160005b858110156108915783830389528151805115158452850151604086850181905261087d8186018361074b565b9a87019a9450505090840190600101610851565b5090979650505050505050565b8381528260208201526060604082015260006108bd6060830184610836565b95945050505050565b6000602082840312156108d857600080fd5b6108e182610593565b9392505050565b6020815260006108e16020830184610836565b60006020828403121561090d57600080fd5b5035919050565b634e487b7160e01b600052603260045260246000fd5b6000825161093c818460208701610727565b9190910192915050565b634e487b7160e01b600052601160045260246000fd5b60006001820161096e5761096e610946565b5060010190565b8181038181111561098857610988610946565b9291505056fea26469706673582212209494e50b41b92c85eebd53cc694cdb5d0f534e0eeec5ca5443534b2661f9653464736f6c63430008110033",
			"opcodes": "PUSH1 0x80 PUSH1 0x40 MSTORE CALLVALUE DUP1 ISZERO PUSH2 0x10 JUMPI PUSH1 0x0 DUP1 REVERT JUMPDEST POP PUSH2 0x9C4 DUP1 PUSH2 0x20 PUSH1 0x0 CODECOPY PUSH1 0x0 RETURN INVALID PUSH1 0x80 PUSH1 0x40 MSTORE CALLVALUE DUP1 ISZERO PUSH2 0x10 JUMPI PUSH1 0x0 DUP1 REVERT JUMPDEST POP PUSH1 0x4 CALLDATASIZE LT PUSH2 0xB4 JUMPI PUSH1 0x0 CALLDATALOAD PUSH1 0xE0 SHR DUP1 PUSH4 0x72425D9D GT PUSH2 0x71 JUMPI DUP1 PUSH4 0x72425D9D EQ PUSH2 0x13A JUMPI DUP1 PUSH4 0x86D516E8 EQ PUSH2 0x140 JUMPI DUP1 PUSH4 0xA8B0574E EQ PUSH2 0x146 JUMPI DUP1 PUSH4 0xBCE38BD7 EQ PUSH2 0x154 JUMPI DUP1 PUSH4 0xC3077FA9 EQ PUSH2 0x174 JUMPI DUP1 PUSH4 0xEE82AC5E EQ PUSH2 0x187 JUMPI PUSH1 0x0 DUP1 REVERT JUMPDEST DUP1 PUSH4 0xF28C97D EQ PUSH2 0xB9 JUMPI DUP1 PUSH4 0x252DBA42 EQ PUSH2 0xCE JUMPI DUP1 PUSH4 0x27E86D6E EQ PUSH2 0xEF JUMPI DUP1 PUSH4 0x399542E9 EQ PUSH2 0xF7 JUMPI DUP1 PUSH4 0x42CBB15C EQ PUSH2 0x119 JUMPI DUP1 PUSH4 0x4D2301CC EQ PUSH2 0x11F JUMPI JUMPDEST PUSH1 0x0 DUP1 REVERT JUMPDEST TIMESTAMP JUMPDEST PUSH1 0x40 MLOAD SWAP1 DUP2 MSTORE PUSH1 0x20 ADD JUMPDEST PUSH1 0x40 MLOAD DUP1 SWAP2 SUB SWAP1 RETURN JUMPDEST PUSH2 0xE1 PUSH2 0xDC CALLDATASIZE PUSH1 0x4 PUSH2 0x6EA JUMP JUMPDEST PUSH2 0x199 JUMP JUMPDEST PUSH1 0x40 MLOAD PUSH2 0xC5 SWAP3 SWAP2 SWAP1 PUSH2 0x777 JUMP JUMPDEST PUSH2 0xBB PUSH2 0x321 JUMP JUMPDEST PUSH2 0x10A PUSH2 0x105 CALLDATASIZE PUSH1 0x4 PUSH2 0x7E1 JUMP JUMPDEST PUSH2 0x334 JUMP JUMPDEST PUSH1 0x40 MLOAD PUSH2 0xC5 SWAP4 SWAP3 SWAP2 SWAP1 PUSH2 0x89E JUMP JUMPDEST NUMBER PUSH2 0xBB JUMP JUMPDEST PUSH2 0xBB PUSH2 0x12D CALLDATASIZE PUSH1 0x4 PUSH2 0x8C6 JUMP JUMPDEST PUSH1 0x1 PUSH1 0x1 PUSH1 0xA0 SHL SUB AND BALANCE SWAP1 JUMP JUMPDEST DIFFICULTY PUSH2 0xBB JUMP JUMPDEST GASLIMIT PUSH2 0xBB JUMP JUMPDEST PUSH1 0x40 MLOAD COINBASE DUP2 MSTORE PUSH1 0x20 ADD PUSH2 0xC5 JUMP JUMPDEST PUSH2 0x167 PUSH2 0x162 CALLDATASIZE PUSH1 0x4 PUSH2 0x7E1 JUMP JUMPDEST PUSH2 0x34C JUMP JUMPDEST PUSH1 0x40 MLOAD PUSH2 0xC5 SWAP2 SWAP1 PUSH2 0x8E8 JUMP JUMPDEST PUSH2 0x10A PUSH2 0x182 CALLDATASIZE PUSH1 0x4 PUSH2 0x6EA JUMP JUMPDEST PUSH2 0x506 JUMP JUMPDEST PUSH2 0xBB PUSH2 0x195 CALLDATASIZE PUSH1 0x4 PUSH2 0x8FB JUMP JUMPDEST BLOCKHASH SWAP1 JUMP JUMPDEST DUP1 MLOAD NUMBER SWAP1 PUSH1 0x60 SWAP1 PUSH8 0xFFFFFFFFFFFFFFFF DUP2 GT ISZERO PUSH2 0x1B8 JUMPI PUSH2 0x1B8 PUSH2 0x523 JUMP JUMPDEST PUSH1 0x40 MLOAD SWAP1 DUP1 DUP3 MSTORE DUP1 PUSH1 0x20 MUL PUSH1 0x20 ADD DUP3 ADD PUSH1 0x40 MSTORE DUP1 ISZERO PUSH2 0x1EB JUMPI DUP2 PUSH1 0x20 ADD JUMPDEST PUSH1 0x60 DUP2 MSTORE PUSH1 0x20 ADD SWAP1 PUSH1 0x1 SWAP1 SUB SWAP1 DUP2 PUSH2 0x1D6 JUMPI SWAP1 POP JUMPDEST POP SWAP1 POP PUSH1 0x0 JUMPDEST DUP4 MLOAD DUP2 LT ISZERO PUSH2 0x31B JUMPI PUSH1 0x0 DUP1 DUP6 DUP4 DUP2 MLOAD DUP2 LT PUSH2 0x20F JUMPI PUSH2 0x20F PUSH2 0x914 JUMP JUMPDEST PUSH1 0x20 MUL PUSH1 0x20 ADD ADD MLOAD PUSH1 0x0 ADD MLOAD PUSH1 0x1 PUSH1 0x1 PUSH1 0xA0 SHL SUB AND DUP7 DUP5 DUP2 MLOAD DUP2 LT PUSH2 0x236 JUMPI PUSH2 0x236 PUSH2 0x914 JUMP JUMPDEST PUSH1 0x20 MUL PUSH1 0x20 ADD ADD MLOAD PUSH1 0x20 ADD MLOAD PUSH1 0x40 MLOAD PUSH2 0x24F SWAP2 SWAP1 PUSH2 0x92A JUMP JUMPDEST PUSH1 0x0 PUSH1 0x40 MLOAD DUP1 DUP4 SUB DUP2 PUSH1 0x0 DUP7 GAS CALL SWAP2 POP POP RETURNDATASIZE DUP1 PUSH1 0x0 DUP2 EQ PUSH2 0x28C JUMPI PUSH1 0x40 MLOAD SWAP2 POP PUSH1 0x1F NOT PUSH1 0x3F RETURNDATASIZE ADD AND DUP3 ADD PUSH1 0x40 MSTORE RETURNDATASIZE DUP3 MSTORE RETURNDATASIZE PUSH1 0x0 PUSH1 0x20 DUP5 ADD RETURNDATACOPY PUSH2 0x291 JUMP JUMPDEST PUSH1 0x60 SWAP2 POP JUMPDEST POP SWAP2 POP SWAP2 POP DUP2 PUSH2 0x2E8 JUMPI PUSH1 0x40 MLOAD PUSH3 0x461BCD PUSH1 0xE5 SHL DUP2 MSTORE PUSH1 0x20 PUSH1 0x4 DUP3 ADD DUP2 SWAP1 MSTORE PUSH1 0x24 DUP3 ADD MSTORE PUSH32 0x4D756C746963616C6C206167677265676174653A2063616C6C206661696C6564 PUSH1 0x44 DUP3 ADD MSTORE PUSH1 0x64 ADD JUMPDEST PUSH1 0x40 MLOAD DUP1 SWAP2 SUB SWAP1 REVERT JUMPDEST DUP1 DUP5 DUP5 DUP2 MLOAD DUP2 LT PUSH2 0x2FB JUMPI PUSH2 0x2FB PUSH2 0x914 JUMP JUMPDEST PUSH1 0x20 MUL PUSH1 0x20 ADD ADD DUP2 SWAP1 MSTORE POP POP POP DUP1 DUP1 PUSH2 0x313 SWAP1 PUSH2 0x95C JUMP JUMPDEST SWAP2 POP POP PUSH2 0x1F1 JUMP JUMPDEST POP SWAP2 POP SWAP2 JUMP JUMPDEST PUSH1 0x0 PUSH2 0x32E PUSH1 0x1 NUMBER PUSH2 0x975 JUMP JUMPDEST BLOCKHASH SWAP1 POP SWAP1 JUMP JUMPDEST NUMBER DUP1 BLOCKHASH PUSH1 0x60 PUSH2 0x343 DUP6 DUP6 PUSH2 0x34C JUMP JUMPDEST SWAP1 POP SWAP3 POP SWAP3 POP SWAP3 JUMP JUMPDEST PUSH1 0x60 DUP2 MLOAD PUSH8 0xFFFFFFFFFFFFFFFF DUP2 GT ISZERO PUSH2 0x368 JUMPI PUSH2 0x368 PUSH2 0x523 JUMP JUMPDEST PUSH1 0x40 MLOAD SWAP1 DUP1 DUP3 MSTORE DUP1 PUSH1 0x20 MUL PUSH1 0x20 ADD DUP3 ADD PUSH1 0x40 MSTORE DUP1 ISZERO PUSH2 0x3AE JUMPI DUP2 PUSH1 0x20 ADD JUMPDEST PUSH1 0x40 DUP1 MLOAD DUP1 DUP3 ADD SWAP1 SWAP2 MSTORE PUSH1 0x0 DUP2 MSTORE PUSH1 0x60 PUSH1 0x20 DUP3 ADD MSTORE DUP2 MSTORE PUSH1 0x20 ADD SWAP1 PUSH1 0x1 SWAP1 SUB SWAP1 DUP2 PUSH2 0x386 JUMPI SWAP1 POP JUMPDEST POP SWAP1 POP PUSH1 0x0 JUMPDEST DUP3 MLOAD DUP2 LT ISZERO PUSH2 0x4FF JUMPI PUSH1 0x0 DUP1 DUP5 DUP4 DUP2 MLOAD DUP2 LT PUSH2 0x3D2 JUMPI PUSH2 0x3D2 PUSH2 0x914 JUMP JUMPDEST PUSH1 0x20 MUL PUSH1 0x20 ADD ADD MLOAD PUSH1 0x0 ADD MLOAD PUSH1 0x1 PUSH1 0x1 PUSH1 0xA0 SHL SUB AND DUP6 DUP5 DUP2 MLOAD DUP2 LT PUSH2 0x3F9 JUMPI PUSH2 0x3F9 PUSH2 0x914 JUMP JUMPDEST PUSH1 0x20 MUL PUSH1 0x20 ADD ADD MLOAD PUSH1 0x20 ADD MLOAD PUSH1 0x40 MLOAD PUSH2 0x412 SWAP2 SWAP1 PUSH2 0x92A JUMP JUMPDEST PUSH1 0x0 PUSH1 0x40 MLOAD DUP1 DUP4 SUB DUP2 PUSH1 0x0 DUP7 GAS CALL SWAP2 POP POP RETURNDATASIZE DUP1 PUSH1 0x0 DUP2 EQ PUSH2 0x44F JUMPI PUSH1 0x40 MLOAD SWAP2 POP PUSH1 0x1F NOT PUSH1 0x3F RETURNDATASIZE ADD AND DUP3 ADD PUSH1 0x40 MSTORE RETURNDATASIZE DUP3 MSTORE RETURNDATASIZE PUSH1 0x0 PUSH1 0x20 DUP5 ADD RETURNDATACOPY PUSH2 0x454 JUMP JUMPDEST PUSH1 0x60 SWAP2 POP JUMPDEST POP SWAP2 POP SWAP2 POP DUP6 ISZERO PUSH2 0x4B6 JUMPI DUP2 PUSH2 0x4B6 JUMPI PUSH1 0x40 MLOAD PUSH3 0x461BCD PUSH1 0xE5 SHL DUP2 MSTORE PUSH1 0x20 PUSH1 0x4 DUP3 ADD MSTORE PUSH1 0x21 PUSH1 0x24 DUP3 ADD MSTORE PUSH32 0x4D756C746963616C6C32206167677265676174653A2063616C6C206661696C65 PUSH1 0x44 DUP3 ADD MSTORE PUSH1 0x19 PUSH1 0xFA SHL PUSH1 0x64 DUP3 ADD MSTORE PUSH1 0x84 ADD PUSH2 0x2DF JUMP JUMPDEST PUSH1 0x40 MLOAD DUP1 PUSH1 0x40 ADD PUSH1 0x40 MSTORE DUP1 DUP4 ISZERO ISZERO DUP2 MSTORE PUSH1 0x20 ADD DUP3 DUP2 MSTORE POP DUP5 DUP5 DUP2 MLOAD DUP2 LT PUSH2 0x4DF JUMPI PUSH2 0x4DF PUSH2 0x914 JUMP JUMPDEST PUSH1 0x20 MUL PUSH1 0x20 ADD ADD DUP2 SWAP1 MSTORE POP POP POP DUP1 DUP1 PUSH2 0x4F7 SWAP1 PUSH2 0x95C JUMP JUMPDEST SWAP2 POP POP PUSH2 0x3B4 JUMP JUMPDEST POP SWAP3 SWAP2 POP POP JUMP JUMPDEST PUSH1 0x0 DUP1 PUSH1 0x60 PUSH2 0x516 PUSH1 0x1 DUP6 PUSH2 0x334 JUMP JUMPDEST SWAP2 SWAP7 SWAP1 SWAP6 POP SWAP1 SWAP4 POP SWAP2 POP POP JUMP JUMPDEST PUSH4 0x4E487B71 PUSH1 0xE0 SHL PUSH1 0x0 MSTORE PUSH1 0x41 PUSH1 0x4 MSTORE PUSH1 0x24 PUSH1 0x0 REVERT JUMPDEST PUSH1 0x40 DUP1 MLOAD SWAP1 DUP2 ADD PUSH8 0xFFFFFFFFFFFFFFFF DUP2 GT DUP3 DUP3 LT OR ISZERO PUSH2 0x55C JUMPI PUSH2 0x55C PUSH2 0x523 JUMP JUMPDEST PUSH1 0x40 MSTORE SWAP1 JUMP JUMPDEST PUSH1 0x40 MLOAD PUSH1 0x1F DUP3 ADD PUSH1 0x1F NOT AND DUP2 ADD PUSH8 0xFFFFFFFFFFFFFFFF DUP2 GT DUP3 DUP3 LT OR ISZERO PUSH2 0x58B JUMPI PUSH2 0x58B PUSH2 0x523 JUMP JUMPDEST PUSH1 0x40 MSTORE SWAP2 SWAP1 POP JUMP JUMPDEST DUP1 CALLDATALOAD PUSH1 0x1 PUSH1 0x1 PUSH1 0xA0 SHL SUB DUP2 AND DUP2 EQ PUSH2 0x5AA JUMPI PUSH1 0x0 DUP1 REVERT JUMPDEST SWAP2 SWAP1 POP JUMP JUMPDEST PUSH1 0x0 PUSH1 0x1F DUP4 DUP2 DUP5 ADD SLT PUSH2 0x5C1 JUMPI PUSH1 0x0 DUP1 REVERT JUMPDEST DUP3 CALLDATALOAD PUSH1 0x20 PUSH8 0xFFFFFFFFFFFFFFFF DUP1 DUP4 GT ISZERO PUSH2 0x5DE JUMPI PUSH2 0x5DE PUSH2 0x523 JUMP JUMPDEST DUP3 PUSH1 0x5 SHL PUSH2 0x5ED DUP4 DUP3 ADD PUSH2 0x562 JUMP JUMPDEST SWAP4 DUP5 MSTORE DUP7 DUP2 ADD DUP4 ADD SWAP4 DUP4 DUP2 ADD SWAP1 DUP10 DUP7 GT ISZERO PUSH2 0x607 JUMPI PUSH1 0x0 DUP1 REVERT JUMPDEST DUP5 DUP10 ADD SWAP3 POP JUMPDEST DUP6 DUP4 LT ISZERO PUSH2 0x6DD JUMPI DUP3 CALLDATALOAD DUP5 DUP2 GT ISZERO PUSH2 0x625 JUMPI PUSH1 0x0 DUP1 DUP2 REVERT JUMPDEST DUP10 ADD PUSH1 0x40 PUSH1 0x1F NOT DUP3 DUP14 SUB DUP2 ADD DUP3 SGT ISZERO PUSH2 0x63E JUMPI PUSH1 0x0 DUP1 DUP2 REVERT JUMPDEST PUSH2 0x646 PUSH2 0x539 JUMP JUMPDEST PUSH2 0x651 DUP10 DUP6 ADD PUSH2 0x593 JUMP JUMPDEST DUP2 MSTORE DUP3 DUP5 ADD CALLDATALOAD DUP9 DUP2 GT ISZERO PUSH2 0x665 JUMPI PUSH1 0x0 DUP1 DUP2 REVERT JUMPDEST DUP1 DUP6 ADD SWAP5 POP POP DUP14 PUSH1 0x3F DUP6 ADD SLT PUSH2 0x67B JUMPI PUSH1 0x0 DUP1 DUP2 REVERT JUMPDEST DUP9 DUP5 ADD CALLDATALOAD DUP9 DUP2 GT ISZERO PUSH2 0x68F JUMPI PUSH2 0x68F PUSH2 0x523 JUMP JUMPDEST PUSH2 0x69E DUP11 DUP5 DUP15 DUP5 ADD AND ADD PUSH2 0x562 JUMP JUMPDEST SWAP3 POP DUP1 DUP4 MSTORE DUP15 DUP5 DUP3 DUP8 ADD ADD GT ISZERO PUSH2 0x6B5 JUMPI PUSH1 0x0 DUP1 DUP2 REVERT JUMPDEST DUP1 DUP5 DUP7 ADD DUP12 DUP6 ADD CALLDATACOPY PUSH1 0x0 SWAP1 DUP4 ADD DUP11 ADD MSTORE DUP1 DUP10 ADD SWAP2 SWAP1 SWAP2 MSTORE DUP5 MSTORE POP POP SWAP2 DUP5 ADD SWAP2 SWAP1 DUP5 ADD SWAP1 PUSH2 0x60D JUMP JUMPDEST SWAP10 SWAP9 POP POP POP POP POP POP POP POP POP JUMP JUMPDEST PUSH1 0x0 PUSH1 0x20 DUP3 DUP5 SUB SLT ISZERO PUSH2 0x6FC JUMPI PUSH1 0x0 DUP1 REVERT JUMPDEST DUP2 CALLDATALOAD PUSH8 0xFFFFFFFFFFFFFFFF DUP2 GT ISZERO PUSH2 0x713 JUMPI PUSH1 0x0 DUP1 REVERT JUMPDEST PUSH2 0x71F DUP5 DUP3 DUP6 ADD PUSH2 0x5AF JUMP JUMPDEST SWAP5 SWAP4 POP POP POP POP JUMP JUMPDEST PUSH1 0x0 JUMPDEST DUP4 DUP2 LT ISZERO PUSH2 0x742 JUMPI DUP2 DUP2 ADD MLOAD DUP4 DUP3 ADD MSTORE PUSH1 0x20 ADD PUSH2 0x72A JUMP JUMPDEST POP POP PUSH1 0x0 SWAP2 ADD MSTORE JUMP JUMPDEST PUSH1 0x0 DUP2 MLOAD DUP1 DUP5 MSTORE PUSH2 0x763 DUP2 PUSH1 0x20 DUP7 ADD PUSH1 0x20 DUP7 ADD PUSH2 0x727 JUMP JUMPDEST PUSH1 0x1F ADD PUSH1 0x1F NOT AND SWAP3 SWAP1 SWAP3 ADD PUSH1 0x20 ADD SWAP3 SWAP2 POP POP JUMP JUMPDEST PUSH1 0x0 PUSH1 0x40 DUP3 ADD DUP5 DUP4 MSTORE PUSH1 0x20 PUSH1 0x40 DUP2 DUP6 ADD MSTORE DUP2 DUP6 MLOAD DUP1 DUP5 MSTORE PUSH1 0x60 DUP7 ADD SWAP2 POP PUSH1 0x60 DUP2 PUSH1 0x5 SHL DUP8 ADD ADD SWAP4 POP DUP3 DUP8 ADD PUSH1 0x0 JUMPDEST DUP3 DUP2 LT ISZERO PUSH2 0x7D3 JUMPI PUSH1 0x5F NOT DUP9 DUP8 SUB ADD DUP5 MSTORE PUSH2 0x7C1 DUP7 DUP4 MLOAD PUSH2 0x74B JUMP JUMPDEST SWAP6 POP SWAP3 DUP5 ADD SWAP3 SWAP1 DUP5 ADD SWAP1 PUSH1 0x1 ADD PUSH2 0x7A5 JUMP JUMPDEST POP SWAP4 SWAP9 SWAP8 POP POP POP POP POP POP POP POP JUMP JUMPDEST PUSH1 0x0 DUP1 PUSH1 0x40 DUP4 DUP6 SUB SLT ISZERO PUSH2 0x7F4 JUMPI PUSH1 0x0 DUP1 REVERT JUMPDEST DUP3 CALLDATALOAD DUP1 ISZERO ISZERO DUP2 EQ PUSH2 0x804 JUMPI PUSH1 0x0 DUP1 REVERT JUMPDEST SWAP2 POP PUSH1 0x20 DUP4 ADD CALLDATALOAD PUSH8 0xFFFFFFFFFFFFFFFF DUP2 GT ISZERO PUSH2 0x820 JUMPI PUSH1 0x0 DUP1 REVERT JUMPDEST PUSH2 0x82C DUP6 DUP3 DUP7 ADD PUSH2 0x5AF JUMP JUMPDEST SWAP2 POP POP SWAP3 POP SWAP3 SWAP1 POP JUMP JUMPDEST PUSH1 0x0 DUP2 MLOAD DUP1 DUP5 MSTORE PUSH1 0x20 DUP1 DUP6 ADD SWAP5 POP DUP5 DUP3 PUSH1 0x5 SHL DUP7 ADD DUP3 DUP7 ADD PUSH1 0x0 JUMPDEST DUP6 DUP2 LT ISZERO PUSH2 0x891 JUMPI DUP4 DUP4 SUB DUP10 MSTORE DUP2 MLOAD DUP1 MLOAD ISZERO ISZERO DUP5 MSTORE DUP6 ADD MLOAD PUSH1 0x40 DUP7 DUP6 ADD DUP2 SWAP1 MSTORE PUSH2 0x87D DUP2 DUP7 ADD DUP4 PUSH2 0x74B JUMP JUMPDEST SWAP11 DUP8 ADD SWAP11 SWAP5 POP POP POP SWAP1 DUP5 ADD SWAP1 PUSH1 0x1 ADD PUSH2 0x851 JUMP JUMPDEST POP SWAP1 SWAP8 SWAP7 POP POP POP POP POP POP POP JUMP JUMPDEST DUP4 DUP2 MSTORE DUP3 PUSH1 0x20 DUP3 ADD MSTORE PUSH1 0x60 PUSH1 0x40 DUP3 ADD MSTORE PUSH1 0x0 PUSH2 0x8BD PUSH1 0x60 DUP4 ADD DUP5 PUSH2 0x836 JUMP JUMPDEST SWAP6 SWAP5 POP POP POP POP POP JUMP JUMPDEST PUSH1 0x0 PUSH1 0x20 DUP3 DUP5 SUB SLT ISZERO PUSH2 0x8D8 JUMPI PUSH1 0x0 DUP1 REVERT JUMPDEST PUSH2 0x8E1 DUP3 PUSH2 0x593 JUMP JUMPDEST SWAP4 SWAP3 POP POP POP JUMP JUMPDEST PUSH1 0x20 DUP2 MSTORE PUSH1 0x0 PUSH2 0x8E1 PUSH1 0x20 DUP4 ADD DUP5 PUSH2 0x836 JUMP JUMPDEST PUSH1 0x0 PUSH1 0x20 DUP3 DUP5 SUB SLT ISZERO PUSH2 0x90D JUMPI PUSH1 0x0 DUP1 REVERT JUMPDEST POP CALLDATALOAD SWAP2 SWAP1 POP JUMP JUMPDEST PUSH4 0x4E487B71 PUSH1 0xE0 SHL PUSH1 0x0 MSTORE PUSH1 0x32 PUSH1 0x4 MSTORE PUSH1 0x24 PUSH1 0x0 REVERT JUMPDEST PUSH1 0x0 DUP3 MLOAD PUSH2 0x93C DUP2 DUP5 PUSH1 0x20 DUP8 ADD PUSH2 0x727 JUMP JUMPDEST SWAP2 SWAP1 SWAP2 ADD SWAP3 SWAP2 POP POP JUMP JUMPDEST PUSH4 0x4E487B71 PUSH1 0xE0 SHL PUSH1 0x0 MSTORE PUSH1 0x11 PUSH1 0x4 MSTORE PUSH1 0x24 PUSH1 0x0 REVERT JUMPDEST PUSH1 0x0 PUSH1 0x1 DUP3 ADD PUSH2 0x96E JUMPI PUSH2 0x96E PUSH2 0x946 JUMP JUMPDEST POP PUSH1 0x1 ADD SWAP1 JUMP JUMPDEST DUP2 DUP2 SUB DUP2 DUP2 GT ISZERO PUSH2 0x988 JUMPI PUSH2 0x988 PUSH2 0x946 JUMP JUMPDEST SWAP3 SWAP2 POP POP JUMP INVALID LOG2 PUSH5 0x6970667358 0x22 SLT KECCAK256 SWAP5 SWAP5 0xE5 SIGNEXTEND COINBASE 0xB9 0x2C DUP6 0xEE 0xBD MSTORE8 0xCC PUSH10 0x4CDB5D0F534E0EEEC5CA SLOAD NUMBER MSTORE8 0x4B 0x26 PUSH2 0xF965 CALLVALUE PUSH5 0x736F6C6343 STOP ADDMOD GT STOP CALLER "
		},
		"gasEstimates": {
			"creation": {
				"codeDepositCost": "500000",
				"executionCost": "537",
				"totalCost": "500537"
			},
			"external": {
				"aggregate((address,bytes)[])": "infinite",
				"blockAndAggregate((address,bytes)[])": "infinite",
				"getBlockHash(uint256)": "388",
				"getBlockNumber()": "269",
				"getCurrentBlockCoinbase()": "220",
				"getCurrentBlockDifficulty()": "180",
				"getCurrentBlockGasLimit()": "202",
				"getCurrentBlockTimestamp()": "170",
				"getEthBalance(address)": "3068",
				"getLastBlockHash()": "340",
				"tryAggregate(bool,(address,bytes)[])": "infinite",
				"tryBlockAndAggregate(bool,(address,bytes)[])": "infinite"
			}
		},
		"methodIdentifiers": {
			"aggregate((address,bytes)[])": "252dba42",
			"blockAndAggregate((address,bytes)[])": "c3077fa9",
			"getBlockHash(uint256)": "ee82ac5e",
			"getBlockNumber()": "42cbb15c",
			"getCurrentBlockCoinbase()": "a8b0574e",
			"getCurrentBlockDifficulty()": "72425d9d",
			"getCurrentBlockGasLimit()": "86d516e8",
			"getCurrentBlockTimestamp()": "0f28c97d",
			"getEthBalance(address)": "4d2301cc",
			"getLastBlockHash()": "27e86d6e",
			"tryAggregate(bool,(address,bytes)[])": "bce38bd7",
			"tryBlockAndAggregate(bool,(address,bytes)[])": "399542e9"
		}
	},
	"abi": [
		{
			"inputs": [
				{
					"components": [
						{
							"internalType": "address",
							"name": "target",
							"type": "address"
						},
						{
							"internalType": "bytes",
							"name": "callData",
							"type": "bytes"
						}
					],
					"internalType": "struct Multicall2.Call[]",
					"name": "calls",
					"type": "tuple[]"
				}
			],
			"name": "aggregate",
			"outputs": [
				{
					"internalType": "uint256",
					"name": "blockNumber",
					"type": "uint256"
				},
				{
					"internalType": "bytes[]",
					"name": "returnData",
					"type": "bytes[]"
				}
			],
			"stateMutability": "nonpayable",
			"type": "function"
		},
		{
			"inputs": [
				{
					"components": [
						{
							"internalType": "address",
							"name": "target",
							"type": "address"
						},
						{
							"internalType": "bytes",
							"name": "callData",
							"type": "bytes"
						}
					],
					"internalType": "struct Multicall2.Call[]",
					"name": "calls",
					"type": "tuple[]"
				}
			],
			"name": "blockAndAggregate",
			"outputs": [
				{
					"internalType": "uint256",
					"name": "blockNumber",
					"type": "uint256"
				},
				{
					"internalType": "bytes32",
					"name": "blockHash",
					"type": "bytes32"
				},
				{
					"components": [
						{
							"internalType": "bool",
							"name": "success",
							"type": "bool"
						},
						{
							"internalType": "bytes",
							"name": "returnData",
							"type": "bytes"
						}
					],
					"internalType": "struct Multicall2.Result[]",
					"name": "returnData",
					"type": "tuple[]"
				}
			],
			"stateMutability": "nonpayable",
			"type": "function"
		},
		{
			"inputs": [
				{
					"internalType": "uint256",
					"name": "blockNumber",
					"type": "uint256"
				}
			],
			"name": "getBlockHash",
			"outputs": [
				{
					"internalType": "bytes32",
					"name": "blockHash",
					"type": "bytes32"
				}
			],
			"stateMutability": "view",
			"type": "function"
		},
		{
			"inputs": [],
			"name": "getBlockNumber",
			"outputs": [
				{
					"internalType": "uint256",
					"name": "blockNumber",
					"type": "uint256"
				}
			],
			"stateMutability": "view",
			"type": "function"
		},
		{
			"inputs": [],
			"name": "getCurrentBlockCoinbase",
			"outputs": [
				{
					"internalType": "address",
					"name": "coinbase",
					"type": "address"
				}
			],
			"stateMutability": "view",
			"type": "function"
		},
		{
			"inputs": [],
			"name": "getCurrentBlockDifficulty",
			"outputs": [
				{
					"internalType": "uint256",
					"name": "difficulty",
					"type": "uint256"
				}
			],
			"stateMutability": "view",
			"type": "function"
		},
		{
			"inputs": [],
			"name": "getCurrentBlockGasLimit",
			"outputs": [
				{
					"internalType": "uint256",
					"name": "gaslimit",
					"type": "uint256"
				}
			],
			"stateMutability": "view",
			"type": "function"
		},
		{
			"inputs": [],
			"name": "getCurrentBlockTimestamp",
			"outputs": [
				{
					"internalType": "uint256",
					"name": "timestamp",
					"type": "uint256"
				}
			],
			"stateMutability": "view",
			"type": "function"
		},
		{
			"inputs": [
				{
					"internalType": "address",
					"name": "addr",
					"type": "address"
				}
			],
			"name": "getEthBalance",
			"outputs": [
				{
					"internalType": "uint256",
					"name": "balance",
					"type": "uint256"
				}
			],
			"stateMutability": "view",
			"type": "function"
		},
		{
			"inputs": [],
			"name": "getLastBlockHash",
			"outputs": [
				{
					"internalType": "bytes32",
					"name": "blockHash",
					"type": "bytes32"
				}
			],
			"stateMutability": "view",
			"type": "function"
		},
		{
			"inputs": [
				{
					"internalType": "bool",
					"name": "requireSuccess",
					"type": "bool"
				},
				{
					"components": [
						{
							"internalType": "address",
							"name": "target",
							"type": "address"
						},
						{
							"internalType": "bytes",
							"name": "callData",
							"type": "bytes"
						}
					],
					"internalType": "struct Multicall2.Call[]",
					"name": "calls",
					"type": "tuple[]"
				}
			],
			"name": "tryAggregate",
			"outputs": [
				{
					"components": [
						{
							"internalType": "bool",
							"name": "success",
							"type": "bool"
						},
						{
							"internalType": "bytes",
							"name": "returnData",
							"type": "bytes"
						}
					],
					"internalType": "struct Multicall2.Result[]",
					"name": "returnData",
					"type": "tuple[]"
				}
			],
			"stateMutability": "nonpayable",
			"type": "function"
		},
		{
			"inputs": [
				{
					"internalType": "bool",
					"name": "requireSuccess",
					"type": "bool"
				},
				{
					"components": [
						{
							"internalType": "address",
							"name": "target",
							"type": "address"
						},
						{
							"internalType": "bytes",
							"name": "callData",
							"type": "bytes"
						}
					],
					"internalType": "struct Multicall2.Call[]",
					"name": "calls",
					"type": "tuple[]"
				}
			],
			"name": "tryBlockAndAggregate",
			"outputs": [
				{
					"internalType": "uint256",
					"name": "blockNumber",
					"type": "uint256"
				},
				{
					"internalType": "bytes32",
					"name": "blockHash",
					"type": "bytes32"
				},
				{
					"components": [
						{
							"internalType": "bool",
							"name": "success",
							"type": "bool"
						},
						{
							"internalType": "bytes",
							"name": "returnData",
							"type": "bytes"
						}
					],
					"internalType": "struct Multicall2.Result[]",
					"name": "returnData",
					"type": "tuple[]"
				}
			],
			"stateMutability": "nonpayable",
			"type": "function"
		}
	]
}